:100000000C94F6000C9408010C9408010C9408015F
:100010000C9408010C9408010C9408010C9408013C
:100020000C9408010C9408010C9408010C9408012C
:100030000C9408010C9408010C9408010C9408011C
:100040000C9408010C9408010C9408010C9408010C
:100050000C9408010C9401040C9408010C94080100
:100060000C9408010C94080107634236B79BD8A78B
:100070001A39685618AEBAAB558C1D3CB7CC5763CD
:10008000BD6DEDFD753EF6177231BF000000803F7B
:1000900008000000BE922449123EABAAAA2ABECD97
:1000A000CCCC4C3E00000080BEABAAAAAA3E000009
:1000B0000000BF000000803F000000000008417801
:1000C000D3BB4387D1133D190E3CC3BD4282AD2B38
:1000D0003E68EC8276BED98FE1A93E4C80EFFFBE30
:1000E00001C4FF7F3F00000000006E616E00696E7A
:1000F000660000407A10F35A00A0724E18090010F2
:10010000A5D4E80000E87648170000E40B5402008C
:1001100000CA9A3B000000E1F505000080969800B7
:10012000000040420F000000A086010000001027E0
:1001300000000000E8030000000064000000000070
:100140000A00000000000100000000002C76D888A2
:10015000DC674F0823DFC1DFAE59E1B1B796E5E3B5
:10016000E453C63AE651997696E8E6C28426EB89CE
:100170008C9B62ED407C6FFCEFBC9C9F40F2BAA56B
:100180006FA5F490055A2AF75C936B6CF9676DC103
:100190001BFCE0E40D47FEF520E6B500D0ED902E07
:1001A0000300943577050080841E080000204E0A65
:1001B000000000C80C333333330F986E12831141A3
:1001C000EF8D2114893BE65516CFFEE6DB18D1846E
:1001D0004B381BF77C1D901DA4BBE4242032847295
:1001E0005E228100C9F124ECA1E53D2711241FBE48
:1001F000CFEFD8E0DEBFCDBF22E0A0E0B1E001C08C
:100200001D92A63BB207E1F70E9487040C94160EDC
:100210000C9400008093C4009093C500E1ECF0E0E2
:10022000808188608083E2ECF0E08081866080835A
:100230000895E0ECF0E0908195FFFDCF8093C6003B
:100240000895ECE7F0E08081806480838EEC8093F9
:100250007A000895BC01990F880B990B0E94C30581
:1002600020E030E040EA50E40E94540620E030E014
:1002700040E85AE30E94540623E333E343E250E4A8
:100280000E94AC0426E636E642E251E40E9454069F
:100290000895BC01990F880B990B0E94C30520E0BB
:1002A00030E040EA50E40E94540620E030E040E8AC
:1002B0005AE30E94540623E333E343E250E40E94EE
:1002C000AC0423E639EC4FEE5FE30E941905089574
:1002D0000E948B056115710591F020E030E0EAE0A5
:1002E000F0E02F5F3F4FCB01BF010E94330C61153F
:1002F0007105B9F784E090E0821B930B089583E0C9
:1003000090E008952F923F925F926F927F928F922A
:100310009F92AF92BF92CF92DF92EF92FF920F9394
:100320001F93CF93DF9300D000D0CDB7DEB7782EE8
:100330004A015B01CB01BA010E9468016C01BC015A
:10034000990F880B990B0E94C3059B01AC0160E0DB
:1003500070E080E291E40E94C10669837A838B8316
:100360009C8320E030EC49E754E4C501B4010E94CD
:100370004F06181674F0A501940169817A818B816A
:100380009C810E9454060E948B05CB01009719F4B2
:1003900029C08FE097E2212C312C672C0F2EFAE038
:1003A000EF2EF12CF02DB7010E94330C062F172FE2
:1003B000922D970D890F0E941901802F912F20E116
:1003C000220E311C009779F7C501B4010E948B05FC
:1003D000672B41F480E32816310421F480E3860D75
:1003E0000E941901C114D10441F08FE0870D90E102
:1003F000C99E800D11240E9419010F900F900F903B
:100400000F90DF91CF911F910F91FF90EF90DF90B0
:10041000CF90BF90AF909F908F907F906F905F90A4
:100420003F902F9008952F923F924F925F926F923C
:100430007F928F929F92AF92BF92CF92DF92EF9274
:10044000FF920F931F93CF93DF93CDB7DEB72A9719
:100450000FB6F894DEBF0FBECDBF4C015B012DB7C8
:100460003EB73A8729871A01220C331C610131E01B
:10047000C31AD108C601880F991F880F991F9E8340
:100480008D83EDB7FEB7E81BF90B0FB6F894FEBFEE
:100490000FBEEDBF2DB73EB72F5F3F4F38872F837D
:1004A00032E0231A310809F463C1EF80F88400E0D8
:1004B00010E0380111231CF48FEF681A780AE894D1
:1004C00060F82401460C571CF201808191810E9442
:1004D0002A01F7016083718382839383F201608133
:1004E0007181F2E06F0E711CF401E60DF71D608062
:1004F000718080E090E00E94C10569837A838B83DC
:100500009C83B30180E090E00E94C1059B01AC0197
:1005100069817A818B819C810E94AD0420E030E06A
:1005200040E05FE30E9454060E948B05CB010E94CD
:100530002A01F70164837583868397830E5F1F4FBB
:10054000F8E0EF0EF11C0215130508F4B2CFF40128
:10055000E20DF31D808191810E942A01F101EE0FCD
:10056000FF1FEE0FFF1F2F813885E20FF31F6083FF
:100570007183828393838DB79EB7ED81FE818E1B3D
:100580009F0B0FB6F8949EBF0FBE8DBF2DB73EB721
:100590002F5F3F4F49013E832D83E12CF12C8701D2
:1005A000FF2014F40F5F1F4F0E7F3501600E711E88
:1005B000F301808191810E944901F401608371837C
:1005C00082839383F301608171810E5F1F4FF50178
:1005D000E00FF11F0081118180E090E00E94C105D1
:1005E0002B013C01B80180E090E00E94C1059B0115
:1005F000AC01C301B2010E94AD0420E030E040E054
:100600005FE30E9454060E948B05CB010E944901C2
:10061000F4016483758386839783F2E0EF0EF11C07
:1006200028E0820E911CE214F30408F4B8CFF5011F
:10063000E20DF31D808191810E944901220C331C3F
:10064000220C331CED81FE81E20DF31D608371836A
:1006500082839383EF80F884570100E010E0412CFF
:10066000512C3201F50161917191819191915F015C
:100670009B01AC010E9454069B01AC01C301B20175
:100680000E94AD042B013C010F5F1F4F0C151D058F
:1006900048F3B60180E090E00E94C10569837A8347
:1006A0008B839C8329813A814B815C81C301B20198
:1006B0000E9419050E941707AB01BC0180E490E07D
:1006C0000E948201AD80BE80150100E010E0412C47
:1006D000512C3201F10161917191819191911F0130
:1006E0009B01AC010E9454069B01AC01C301B20105
:1006F0000E94AD042B013C010F5F1F4F0C151D051F
:1007000048F329813A814B815C81C301B2010E9487
:1007100019050E94170723EF34E045EB5FE30E94C1
:100720005406AB01BC0180E890E00E94820100E029
:1007300010E0412C512C3201F701619171918191AE
:1007400091917F01F50121913191419151915F0189
:100750000E9454069B01AC01C301B2010E94AD048A
:100760002B013C010F5F1F4F0C151D0528F31CC00A
:10077000F401808191810E942A01EF81F8856083D4
:100780007183828393832DB73EB78D819E81281B11
:10079000390B0FB6F8943EBF0FBE2DBFEDB7FEB7B5
:1007A0003196FE83ED8343CF29813A814B815C8171
:1007B0000E941905AB01BC017F7780EC90E00E949C
:1007C000820129853A850FB6F8943EBF0FBE2DBF32
:1007D0002A960FB6F894DEBF0FBECDBFDF91CF9142
:1007E0001F910F91FF90EF90DF90CF90BF90AF904F
:1007F0009F908F907F906F905F904F903F902F9041
:1008000008951F920F920FB60F9211248F939F930A
:10081000EF93FF93F89480917C0080FD30C080912D
:100820007C0082FD2CC0E0910401F09105018091D3
:10083000780090917900EE0FFF1FE252FE4F9183F6
:10084000808380910401909105018C36910554F4C8
:100850008091040190910501019690930501809388
:10086000040104C01092050110920401ECE7F0E0CD
:1008700080818460808380818160808339C08091A1
:100880007C0080FF35C080917C0082FF31C0E09108
:100890000201F09103018091780090917900EE0FB0
:1008A000FF1FEA5FFE4F9183808380910201909148
:1008B00003018C36910554F480910201909103015B
:1008C000019690930301809302010AC010920301E4
:1008D0001092020181E090E0909301018093000169
:1008E000ECE7F0E080818B7F808380818E7F808346
:1008F0007894EAE7F0E0808180648083FF91EF9153
:100900009F918F910F900FBE0F901F901895789424
:1009100087E690E00E940A010E9421018091000177
:10092000909101010197D1F7F8944CE650E066E010
:1009300071E08EED91E00E9413022FEF89E698E1BD
:10094000215080409040E1F700C00000109201016A
:10095000109200017894E2CF5058BB27AA270E943A
:10096000C4040C9415060E94070638F00E940E0677
:1009700020F039F49F3F19F426F40C9404060EF489
:10098000E095E7FB0C94FE05E92F0E94260658F33C
:10099000BA17620773078407950720F079F4A6F564
:1009A0000C9448060EF4E0950B2EBA2FA02D0B01E7
:1009B000B90190010C01CA01A0011124FF27591BA4
:1009C00099F0593F50F4503E68F11A16F040A22FAA
:1009D000232F342F4427585FF3CF4695379527951B
:1009E000A795F0405395C9F77EF41F16BA0B620B1A
:1009F000730B840BBAF09150A1F0FF0FBB1F661F61
:100A0000771F881FC2F70EC0BA0F621F731F841FA3
:100A100048F4879577956795B795F7959E3F08F0C9
:100A2000B0CF9395880F08F09927EE0F979587958B
:100A300008950E942D050C9415060E940E0658F08C
:100A40000E94070640F029F45F3F29F00C94FE0550
:100A500051110C9449060C9404060E94260668F372
:100A60009923B1F3552391F3951B550BBB27AA2767
:100A700062177307840738F09F5F5F4F220F331FA1
:100A8000441FAA1FA9F335D00E2E3AF0E0E832D069
:100A900091505040E695001CCAF72BD0FE2F29D06C
:100AA000660F771F881FBB1F261737074807AB073E
:100AB000B0E809F0BB0B802DBF01FF2793585F4FB3
:100AC0003AF09E3F510578F00C94FE050C944906CF
:100AD0005F3FE4F3983ED4F3869577956795B79595
:100AE000F7959F5FC9F7880F911D9695879597F9A0
:100AF0000895E1E0660F771F881FBB1F6217730719
:100B00008407BA0720F0621B730B840BBA0BEE1F2D
:100B100088F7E09508950E9492056894B1110C94AD
:100B2000490608950E942E0688F09F5798F0B92F25
:100B30009927B751B0F0E1F0660F771F881F991F12
:100B40001AF0BA95C9F714C0B13091F00E94480666
:100B5000B1E008950C944806672F782F8827B85F76
:100B600039F0B93FCCF3869577956795B395D9F76A
:100B70003EF490958095709561957F4F8F4F9F4F74
:100B80000895E89409C097FB3EF490958095709580
:100B900061957F4F8F4F9F4F9923A9F0F92F96E9C9
:100BA000BB279395F695879577956795B795F1113E
:100BB000F8CFFAF4BB0F11F460FF1BC06F5F7F4FDB
:100BC0008F4F9F4F16C0882311F096E911C07723ED
:100BD00021F09EE8872F762F05C0662371F096E8F6
:100BE000862F70E060E02AF09A95660F771F881FC5
:100BF000DAF7880F9695879597F9089597F99F6783
:100C000080E870E060E008959FEF80EC0895002494
:100C10000A941616170618060906089500240A9461
:100C200012161306140605060895092E0394000CE7
:100C300011F4882352F0BB0F40F4BF2B11F460FF76
:100C400004C06F5F7F4F8F4F9F4F089557FD90589F
:100C5000440F551F59F05F3F71F04795880F97FB80
:100C6000991F61F09F3F79F087950895121613063A
:100C70001406551FF2CF4695F1DF08C01616170669
:100C80001806991FF1CF869571056105089408959E
:100C9000E894BB2766277727CB0197F908950E9430
:100CA000910708F48FEF08950E9467060C941506CB
:100CB0000E94070638F00E940E0620F0952311F0DE
:100CC0000C94FE050C94040611240C9449060E9411
:100CD000260670F3959FC1F3950F50E0551F629F54
:100CE000F001729FBB27F00DB11D639FAA27F00D85
:100CF000B11DAA1F649F6627B00DA11D661F829FAC
:100D00002227B00DA11D621F739FB00DA11D621F90
:100D1000839FA00D611D221F749F3327A00D611DAD
:100D2000231F849F600D211D822F762F6A2F11248F
:100D30009F5750409AF0F1F088234AF0EE0FFF1FC2
:100D4000BB1F661F771F881F91505040A9F79E3F19
:100D5000510580F00C94FE050C9449065F3FE4F3C6
:100D6000983ED4F3869577956795B795F795E7956F
:100D70009F5FC1F7FE2B880F911D9695879597F978
:100D80000895FA01EE0FFF1F309621053105A1F1FC
:100D90006115710561F48038BFE39B0749F16894E0
:100DA0009038810561F08038BFEF9B0741F09923AF
:100DB0004AF5FF3FE1053105210519F1E894089452
:100DC000E795D901AA2329F4AB2FBE2FF85FD0F302
:100DD00010C0FF5F70F4A695E0F7F73950F019F0F6
:100DE000FF3A38F49F779F930DD00F9007FC9058EF
:100DF000089546F00C94040660E070E080E89FE3FC
:100E000008954FE79F775F934F933F932F930E94EF
:100E10003B082F913F914F915F910E9454060C9493
:100E20005F0719F416F40C9404060C94B5070E949D
:100E30002E06B8F39923C9F3B6F39F57550B87FFD6
:100E40000E94C3070024A0E640EA9001805856950E
:100E5000979528F4805C660F771F881F20F026176F
:100E60003707480730F4621B730B840B20293129A4
:100E70004A2BA69517940794202531254A2758F721
:100E8000660F771F881F20F026173707480730F4B2
:100E9000620B730B840B200D311D411DA09581F752
:100EA000B901842F9158880F96958795089529F454
:100EB00016F00C94FE050C9448060C9404060E944F
:100EC0002E06A8F39638A0F707F80F92E8942BE3C4
:100ED0003AEA48EB5FE70E946A060F920F920F9280
:100EE0004DB75EB70F920E948308E8E6F0E00E94DB
:100EF000CA074F915F91EF91FF91E595EE1FFF1F9C
:100F000049F0FE57E0684427EE0F441FFA95E1F7D9
:100F10004195550B0E94FD070F9007FE0C94F107B9
:100F20000895990F0008550FAA0BE0E8FEEF16167A
:100F30001706E807F907C0F012161306E407F507CD
:100F400098F0621B730B840B950B39F40A2661F041
:100F5000232B242B252B21F408950A2609F4A140E4
:100F6000A6958FEF811D811D08959F3F31F091500F
:100F700020F4879577956795B795880F911D96957D
:100F8000879597F9089591505040660F771F881FF5
:100F9000D2F70895DF93CF931F930F93FF92EF92B1
:100FA000DF927B018C01689406C0DA2EEF010E946B
:100FB0006706FE01E894A5912591359145915591DB
:100FC000A6F3EF010E94C404FE019701A801DA9480
:100FD00069F7DF90EF90FF900F911F91CF91DF9114
:100FE00008959B01AC0160E070E080E89FE30C9401
:100FF00019050C94FE050C94B5070E942E06D8F333
:101000009923C9F3940F511DA3F39150504094F0CC
:1010100059F0882332F0660F771F881F9150504097
:10102000C1F79E3F51052CF7880F911D9695879526
:1010300097F908955F3FACF0983E9CF0BB278695EA
:1010400077956795B79508F4B1609395C1F7BB0F95
:1010500058F711F460FFE8CF6F5F7F4F8F4F9F4FBE
:10106000E3CF0C94490616F00C94B5070C940406D3
:1010700068940C94FE050E942E06A8F39923C1F3F0
:10108000AEF3DF93CF931F930F93FF92C92FDD270A
:1010900088232AF02197660F771F881FDAF720E050
:1010A00030E040E85FEB9FE3883920F0803E38F085
:1010B00021968F770E94AD04E0E9F0E004C00E9421
:1010C000AD04EDEBF0E00E94CA078B01BE01EC011C
:1010D000FB2E6F5771097595771F880B990B0E942E
:1010E000C30528E132E741E35FE30E946706AF2DC5
:1010F0009801AE01FF900F911F91CF91DF910E9457
:10110000C4040C941506FA01DC01AA0FBB1F9B0155
:10111000AC01BF5728F4222733274427507820C03A
:10112000B75190F4AB2F0024469537952795011CB5
:10113000A395D2F3002071F0220F331F441FB39503
:10114000DAF30ED00C94AC0461307105A0E88A0784
:10115000B94630F49B01AC01662777278827907841
:10116000309621F020833183428353830895A3E195
:10117000B0E0EDEBF8E00C94470C6C014B012A0158
:10118000FC0117821682838181FF43C3AE014F5F4A
:101190005F4F3A01F6019381F40193FD859193FF2E
:1011A00081914F01882309F430C3853239F493FDCE
:1011B000859193FF81914F01853239F4B60190E01A
:1011C0000E94800D52012501E5CF10E0F12C20E0B6
:1011D0002032A0F48B3269F030F4803259F083323F
:1011E00069F420612CC08D3239F0803339F42160EC
:1011F00026C02260246023C0286021C027FD27C0AC
:1012000030ED380F3A3078F426FF06C0FAE01F9F21
:10121000300D1124132F13C04AE0F49E300D112419
:10122000F32E20620CC08E3221F426FDEEC2206423
:1012300006C08C3611F4206802C0883641F4F401EF
:1012400093FD859193FF81914F018111C1CF9BEB5C
:10125000980F933018F42061805E06C09BE9980FC8
:10126000933008F071C12F7E26FF16E02F73322EC7
:10127000853619F42064322E08C0863621F4F22F08
:10128000F0683F2E02C01111115037FE07C01C3309
:1012900050F4EE24E394E10E27E00BC0183038F050
:1012A00027E017E005C027E04CE3E42E02C0212F21
:1012B000E12C520144E0A40EB11CF2016081718165
:1012C000828193810E2DA3010E94920C2C01098131
:1012D00000FF02C003FF07C031FC08C032FE09C096
:1012E00030E2232E07C02DE2222E04C09BE2292EDD
:1012F00001C0212C802F8C7019F0211068C2A8C267
:1013000037FE0FC0E40C04FF04C08A81813309F466
:10131000EA941E1474F5F8E0FE1578F588E0E82EDE
:101320002CC036FC2AC0812F90E0841595059CF0D6
:101330002CEF42162FEF520674F0432D4068342EE6
:101340000AC0E2E0F0E0EC0FFD1FE10FF11D80812B
:10135000803319F411501111F4CF37FE0EC0EE2472
:10136000E394E10E812F90E0481659062CF41419ED
:1013700004C0EE24E39401C010E037FE06C014144C
:10138000150434F4C201019605C085E090E002C066
:1013900081E090E021100196112331F0212F30E0FF
:1013A0002F5F3F4F820F931F2F2D30E0821793073F
:1013B00014F4F81A01C0F12C832D897049F4FF2030
:1013C00039F0B60180E290E00E94800DFA94F7CFE8
:1013D000222029F0B601822D90E00E94800D33FC7E
:1013E00009C0FF2039F0B60180E390E00E94800D33
:1013F000FA94F7CF37FE5AC0942D852D57FE02C0C0
:1014000090E080E0292E382E20E030E0A2014E1935
:1014100051095D874C87A201421953095F874E87A6
:10142000612F70E044275527461B570B598B488B7B
:101430005FEF2516350649F4B6018EE290E02A8B5F
:101440003B8B0E94800D3B892A89421453046CF027
:101450004C855D854215530544F4EE85FF85E20F0A
:10146000F31FE60DF71D818101C080E351E0251ACD
:1014700031082F5F3F4F48895989241635064CF0B3
:10148000B60190E02A8B3B8B0E94800D2A893B8914
:10149000CFCF2414350439F49A81963318F4953358
:1014A00011F404FF81E3B60190E04BC08A818133DF
:1014B00009F00F7EB60190E00E94800D111105C069
:1014C00034FC18C085E690E017C0B6018EE290E0CB
:1014D0000E94800D82E0EE24E394E80EF301E80F11
:1014E000F11D8081B60190E00E94800D11508E2D7B
:1014F00091F7E6CF85E490E0B6010E94800D57FC9D
:1015000005C04114510439F404FF05C051944194BD
:1015100051088DE201C08BE2B60190E00E94800D7F
:1015200080E39AE0491651042CF08F5F5AE0451A87
:101530005108F7CFB60190E00E94800DB601C201BC
:10154000C0960E94800D57C1833631F0833779F001
:10155000833509F058C021C05201E2E0AE0EB11C43
:10156000F2018081898301E010E0230114C052015F
:10157000F2E0AF0EB11CF2014080518026FF03C0A3
:10158000612F70E002C06FEF7FEFC2012A8B0E94D3
:10159000750D8C012A892F7715C05201F2E0AF0E2C
:1015A000B11CF2014080518026FF03C0612F70E022
:1015B00002C06FEF7FEFC2012A8B0E946A0D8C017F
:1015C0002A892068322E23FD1AC08F2D90E008173B
:1015D0001907A8F4B60180E290E00E94800DFA9409
:1015E000F4CFF20137FC859137FE81912F01B601CE
:1015F00090E00E94800DF110FA940150110901153C
:10160000110579F7F8C0843611F0893659F5520181
:1016100027FF09C0F4E0AF0EB11CF20160817181B7
:10162000828193810AC0F2E0AF0EB11CF2016081A9
:101630007181072E000C880B990B2F76322E97FFA5
:1016400009C090958095709561957F4F8F4F9F4F02
:101650002068322E2AE030E0A3010E94B80DE82E67
:10166000E6183FC0022F853721F40F7E2AE030E0D4
:101670001DC0097F8F3691F018F4883559F0C5C028
:10168000803719F0883711F0C0C0006104FF09C02D
:10169000046007C024FF08C0066006C028E030E0F0
:1016A00005C020E130E002C020E132E0520107FF36
:1016B00009C0F4E0AF0EB11CF2016081718182813A
:1016C000938108C0F2E0AF0EB11CF201608171811C
:1016D00080E090E0A3010E94B80DE82EE6180F7795
:1016E000302E36FE0BC0332D3E7FE11650F434FE13
:1016F0000AC032FC08C0332D3E7E05C00E2D332DAE
:1017000003C00E2D01C0012F34FF0CC0FE01EE0DF1
:10171000F11D8081803311F4397E08C032FF05C08D
:101720000E5F04C0832F867809F00F5F33FD13C06E
:1017300030FF06C01E2D0F1518F41F0D101B0F2DA6
:101740000F1568F4B60180E290E03B8B0E94800D9B
:101750000F5F3B89F5CF0F1510F4F01A01C0F12C83
:1017600034FF12C0B60180E390E03B8B0E94800DF5
:101770003B8932FF17C031FD03C088E790E002C00B
:1017800088E590E0B6010CC0832F867859F031FFD0
:1017900002C08BE201C080E237FD8DE2B60190E02D
:1017A0000E94800DE11638F4B60180E390E00E94BB
:1017B000800D1150F7CFEA94F301EE0DF11D8081F9
:1017C000B60190E00E94800DE110F5CF14C0F4E066
:1017D000FF1558F584E0F81A33FE1EC0211026C00C
:1017E00003FF2AC00AEE10E0F32DF0713F2EF8013E
:1017F0008491811124C0FF2009F4E5CCB60180E278
:1018000090E00E94800DFA94F6CFF60186819781D0
:1018100026C08FEF9FEF23C0B60180E290E00E94C8
:10182000800DFA94F110F8CFD9CFF12CB601822DAA
:1018300090E00E94800DD4CF0EEE10E0D5CF311095
:101840008052B60190E00E94800D0F5F1F4FCFCFF6
:1018500023E02F1510F483E0BECFF12CC1CF6396A7
:10186000E2E10C94630C97FB072E16F4009407D06A
:1018700077FD09D00E947E0C07FC05D03EF49095C0
:1018800081959F4F0895709561957F4F08952F9290
:101890003F924F925F926F927F928F929F92AF9200
:1018A000BF92CF92DF92EF92FF920F931F93CF934D
:1018B000DF93CDB7DEB7CA1BDB0B0FB6F894DEBFE4
:1018C0000FBECDBF09942A88398848885F846E840A
:1018D0007D848C849B84AA84B984C884DF80EE8054
:1018E000FD800C811B81AA81B981CE0FD11D0FB65D
:1018F000F894DEBF0FBECDBFED010895AA1BBB1B40
:1019000051E107C0AA1FBB1FA617B70710F0A61BFF
:10191000B70B881F991F5A95A9F780959095BC0120
:10192000CD010895283008F027E03327DA01990F18
:10193000311D87FD916000966105710539F43260B3
:101940002E5F3D9330E32A95E1F708959F3F30F0F5
:1019500080387105610509F03C5F3C5F3D93913033
:1019600008F08068911DDF93CF931F930F93FF9230
:10197000EF92192F987F9695E92F96959695E90FF6
:10198000FF27E45BFE4F99273327EE24FF24A701AE
:10199000E70105900894079428F4360FE71EF81E17
:1019A000491F511D660F771F881F991F0694A1F7C5
:1019B0000590079428F4E70EF81E491F561FC11D15
:1019C000770F881F991F661F0694A1F7059007944B
:1019D00028F4F80E491F561FC71FD11D880F991FE5
:1019E000661F771F0694A1F70590079420F4490F0E
:1019F000561FC71FD81F990F661F771F881F069491
:101A0000A9F784911095177041F0D695C795579511
:101A10004795F794E7941A95C1F7E2EFF0E06894E0
:101A20001590159135916591959105907FE273958B
:101A3000E118F10A430B560BC90BD009C0F7E10CB2
:101A4000F11E431F561FC91FD01D7EF4703311F4C1
:101A50008A95E6CFE894015030F0080F0AF4002789
:101A6000021708F4202F2395022F7A3328F079E308
:101A70007D932A95E9F710C07D932A9589F60694FF
:101A800097956795379517951794E118F10A430BC9
:101A9000560BC90BD00998F023957E9173957A3334
:101AA00008F070E37C932013B8F77E9170617D930A
:101AB00030F0839571E37D9370E32A95E1F711246B
:101AC000EF90FF900F911F91CF91DF91992787FDA4
:101AD00090950895FC010590615070400110D8F771
:101AE000809590958E0F9F1F0895FC016150704066
:101AF00001900110D8F7809590958E0F9F1F089543
:101B00000F931F93CF93DF93FB01238121FD03C02C
:101B10008FEF9FEF28C022FF16C046815781248196
:101B200035814217530744F4A081B1819D012F5F95
:101B30003F4F318320838C93268137812F5F3F4F26
:101B40003783268310C0EB01092F182F0084F185FD
:101B5000E02D0995892BE1F68E819F8101969F8367
:101B60008E83812F902FDF91CF911F910F91089538
:101B7000FA01AA27283051F1203181F1E8946F93BE
:101B80006E7F6E5F7F4F8F4F9F4FAF4FB1E03ED064
:101B9000B4E03CD0670F781F891F9A1FA11D680F02
:101BA000791F8A1F911DA11D6A0F711D811D911D35
:101BB000A11D20D009F468943F912AE0269F1124AA
:101BC0003019305D3193DEF6CF010895462F47700E
:101BD000405D4193B3E00FD0C9F7F6CF462F4F7069
:101BE000405D4A3318F0495D31FD4052419302D0C7
:101BF000A9F7EACFB4E0A69597958795779567956D
:101C0000BA95C9F700976105710508959B01AC016C
:101C10000A2E06945795479537952795BA95C9F793
:101C2000620F731F841F951FA01D0895F894FFCFA6
:00000001FF
