S013000067726F75704E616D6532392E73726563F8
S11300000C9434000C943E000C943E000C943E007E
S11300100C943E000C943E000C943E000C943E0064
S11300200C943E000C943E000C943E000C943E0054
S11300300C943E000C943E000C943E000C943E0044
S11300400C943E000C943E000C943E000C943E0034
S11300500C943E000C943E000C943E000C943E0024
S11300600C943E000C943E0011241FBECFEFD8E048
S1130070DEBFCDBF0E9456000C947E000C9400009D
S11300808093C4009093C500E1ECF0E08081886027
S11300908083E2ECF0E08081866080830895909113
S11300A0C00095FFFCCF8093C6000895CF93DF93E3
S11300B000D000D0CDB7DEB787E690E00E944000C4
S11300C080E2898381E18A8382E38B8386E08C8367
S11300D07E0185E0E80EF11C8E010F5F1F4F0E15A7
S11300E01F05D1F3F80181918F01EFE7FEE331970A
S11300F0F1F700C000000E944F00F1CFF894FFCF49
S9030000FC
